:020000040800F2
:100000007006002089010008910100089301000892
:100010009501000897010008990100080000000000
:100020000000000000000000000000009B0100082C
:100030009D010008000000009F010008A1010008C8
:10004000A3010008A3010008A3010008A301000800
:10005000A3010008A3010008A3010008A3010008F0
:10006000A3010008A3010008A3010008A3010008E0
:10007000A3010008A3010008A3010008A3010008D0
:10008000A3010008A3010008A3010008A3010008C0
:10009000A3010008A3010008A3010008A3010008B0
:1000A000A3010008A3010008A3010008A3010008A0
:1000B000A3010008A301000800000000A30100083C
:1000C000A30100080000000000000000A3010008D8
:1000D00000000000A3010008A301000800000000C8
:1000E000A3010008A3010008A301000800F002F822
:1000F00000F03AF80AA090E8000C82448344AAF188
:100100000107DA4501D100F02FF8AFF2090EBAE885
:100110000F0013F0010F18BFFB1A43F0010318473B
:10012000EC0500000C060000103A24BF78C878C126
:10013000FAD8520724BF30C830C144BF04680C60ED
:10014000704700000023002400250026103A28BF35
:1001500078C1FBD8520728BF30C148BF0B60704739
:100160001FB51FBD10B510BD00F031F81146FFF7E7
:10017000F7FF00F023FA00F04FF803B4FFF7F2FFA7
:1001800003BC00F057F800000948804709480047C1
:10019000FEE7FEE7FEE7FEE7FEE7FEE7FEE7FEE737
:1001A000FEE7FEE704480549054A064B7047000094
:1001B0005D050008ED0000087000002070060020BA
:1001C000700200207002002070477047704775462B
:1001D00000F02CF8AE4605006946534620F00700B3
:1001E000854618B020B5FFF7DDFFBDE820404FF091
:1001F00000064FF000074FF000084FF0000B21F011
:100200000701AC46ACE8C009ACE8C009ACE8C009DD
:10021000ACE8C0098D46704710B50446AFF30080C6
:100220002046BDE81040FFF7A8BF00000048704717
:100230000C00002001491820ABBEFEE7260002009A
:10024000704710B500F060F84FF4803000F0B4F85B
:1002500000BF312000F07EF80028FAD0002000F026
:100260009FF84FF4806000F0CDF8002000F0D6F841
:100270004FF4E0114FF4803000F0E2F8012000F07C
:10028000D9F800BF392000F065F80028FAD0022024
:1002900000F0E4F800BF00F07BF80828FBD1012152
:1002A0000C2000F021F810BD00210D4A118012E051
:1002B00000210C4A118004E00A490988491C094AB6
:1002C000118008490988B1F5037FF5DD04490988E3
:1002D000491C034A1180024909888142E8DB7047C2
:1002E000000000200200002029B1064A9269024362
:1002F000044B9A6104E0034A92698243014B9A617C
:1003000070470000001002400F48006840F00100F4
:100310000D490860084640680C4908400A49486091
:10032000084600680A49084007490860084600680E
:1003300020F4802008600846406820F4FE004860F1
:100340004FF41F0088607047001002400000FFF863
:10035000FFFFF6FE10B501460022002300204A11DF
:10036000012A02D1094C236806E0022A02D1074C77
:10037000236A01E0054C636A01F01F0201249440E6
:100380001C400CB1012000E0002010BD0010024014
:100390000248406800F00C00704700000010024066
:1003A00001460020034A506820F0F00008435060E6
:1003B00070470000001002401149096821F48031A3
:1003C0000F4A11601146096821F480211160B0F5CF
:1003D000803F03D0B0F5802F0ED106E008490968B0
:1003E00041F48031064A116007E00549096841F48B
:1003F000A021034A116000E000BF00BF7047000069
:100400000010024001460020034A506820F4E060DA
:100410000843506070470000001002400146002071
:10042000034A506820F4605040EAC10050607047B1
:100430000010024001490866704700000000424277
:1004400002460020044B586820F47C1042EA010365
:100450001843014B586070470010024001460020CD
:10046000034A506820F003000843506070470000C2
:100470000010024010B500F001F810BD0CB50020CE
:10048000019000903348006840F4803031490860A2
:1004900000BF3048006800F4003000900198401C14
:1004A0000190009818B90198B0F5A06FF1D12948D2
:1004B000006800F4003010B10120009001E000203D
:1004C00000900098012843D12348006840F01000B4
:1004D000214908600846006820F0030008600846CB
:1004E000006840F0020008601A48406819494860F6
:1004F0000846406848600846406840F480604860AC
:100500000846406820F47C1048600846406840F483
:10051000E81048600846006840F08070086000BF3E
:100520000C48006800F000700028F9D009484068C5
:1005300020F00300074948600846406840F0020088
:10054000486000BF0348406800F00C000828F9D15B
:100550000CBD0000001002400020024010B51348FE
:10056000006840F0010011490860084640681049E1
:1005700008400E494860084600680E4908400B498B
:1005800008600846006820F480200860084640683B
:1005900020F4FE0048604FF41F008860FFF76AFFF8
:1005A0004FF000600449086010BD000000100240D8
:1005B0000000FFF8FFFFF6FE08ED00E0FFF741FE48
:1005C0004FF022304E490860091D08604D4908600F
:1005D000091D0860FF204A490C31086000024949A2
:1005E0000C3108604FF4FA70FFF75EFE4FF47F4065
:1005F00043490C310860FF2042490C3108604FF438
:10060000FA70FFF751FE4FF6FF703D490C3108605C
:1006100000203C490C3108604FF4FA70FFF744FEAB
:100620006CE000203849088018E035480C3000683C
:10063000C0F34E0032490C31086032480C3000687B
:10064000012101EB40002F490C3108603220FFF7F7
:100650002BFE2D480088401C2B4908802A48008822
:100660001028E2DB00202849088018E024480C30DC
:100670000068012101EB400021490C31086021484C
:100680000C300068C0F34E001E490C310860322067
:10069000FFF70AFE1C480088401C1B4908801A48C6
:1006A00000881028E2DB00201749088022E0164964
:1006B000088800EBD0714910A0EB410149B9002036
:1006C0000F490C3108604FF6FF700E490C3108607D
:1006D00008E04FF6FF700A490C3108600020094914
:1006E0000C3108606420FFF7DFFD07480088401CDC
:1006F00005490880044800880A28D8DB91E70000F3
:10070000000C014000080140040000202C070008F4
:10071000000000200C000000280100083807000835
:100720000C000020640600004401000800000000E6
:080730000000000000000000C1
:040000050800018965
:00000001FF
